:020000040808EA
:10000000000008083CD20808000005000A000501AD
:080010000402350100000000AC
:10001800FCA7080809480A4908B5884205D0094AD2
:10002800824202D0121A09F0EFF90748074A002164
:10003800121A09F00FFA064808BD00BF0004002094
:1000480034CD0808E0080020E008002064140020EF
:100058006414002070B505F04DFC074B074C1E4694
:10006800E41AA4080025A54204D056F8253098477C
:100078000135F8E770BD00BFECC2080830C30808B6
:1000880001F000B908B501F04BFBBDE8084005F0E8
:10009800F3BB04F0A9BB04F0AFBB000008B5034AEA
:1000A80000210C2004F0BAFAFEE700BF75420808E8
:1000B8000078B0FA80F04009704701230370704758
:1000C800014B01221A707047200C00200368184762
:1000D800012A02D0022A02D004E0016002E00B6883
:1000E80000B103600020704710B40C880368114603
:1000F800204610BC1847012A02D0022A02D004E088
:10010800016002E00B6800B103600020704770478F
:1001180007B5054B0A221B680021684604F0E2FC7B
:1001280003B05DF804FB00BF100D002008B504F013
:1001380033FB18B104F0A2F8014B186008BD00BFEA
:1001480060120020000000002DE9F743644803F026
:1001580091FB644C2060624803F096FB6060604845
:1001680003F09CFB21680546A060084608F014FED1
:10017800676806463946384608F00EFE014630469E
:1001880008F002FD29460646284608F005FE014605
:10019800304608F0F9FC08F075F906F089FB08F01C
:1001A8009DFC08F06FF902460B4600204E4908F006
:1001B80009F821F00043194608F090FC4B4D2860DF
:1001C80008F060F940A3D3E9002308F03FFC58B1D8
:1001D800474B986840B16FF0004200238DE80C004F
:1001E80001211A4604F0C2F8286808F04BF938A330
:1001F800D3E9002308F00CFC3E4D80B13E490022B3
:100208004FF08043D1E9000108F002FC38B13B4BC4
:100218001A7822B901221A7004F030F8286004F024
:100228002DF82B68364EC01AB0F5FA6F354D34D21A
:100238002F686068394608F0A5FC08F023F926A362
:10024800D3E9002308F072F980463846894608F059
:1002580019F902460B464046494607F0B5FF08F033
:100268003DFC376828603946A06808F08BFC08F028
:1002780009F919A3D3E9002308F058F9804638464C
:10028800894608F0FFF802460B464046494607F003
:100298009BFF08F023FC30600AE0174900221A4B44
:1002A800D1E9000108F0D2FB10B1144B00221A70FA
:1002B800A168306808F066FC296808F021FEA06093
:1002C80003B0BDE8F08300BFB81E85EB51B8BE3F50
:1002D8007B14AE47E17A743F9A9999999999C93FE5
:1002E800B00A0020840A00200000F03F9C0C002087
:1002F800E8080020380C0020400C00203C0C0020AE
:10030800740A0020700A00200000244037B5114804
:1003180005F004FA054608F0B5F8CDE900010E4CE1
:100328000E4B0F4A1B684FF48071204604F08CFA7C
:100338000C4B00221B780C498DF804208DF80030F6
:1003480022463C23094802F0A9FA284608F0EAFEAA
:1003580003B030BD140D002008090020980A0020C1
:100368004CA80808940A00207FA80808C40C00209C
:1003780010B504F005FF40F2FD63A0F10A029A42AD
:1003880004460A4B0A4A0AD8012119704FF47A73B5
:100398004343136003F072FF064B186004E000212A
:1003A800197044F620631360204610BD760C0020B7
:1003B8000C0400200409002013B504681C492046D9
:1003C80009F078F820B11B49204609F073F848B9BC
:1003D800194B68461B684FF4E142022104F082FB86
:1003E800022023E01549204609F064F818B904F002
:1003F80076FB04201AE01249204609F05BF840B960
:10040800104B114A187001231370104A03201370FF
:100418000CE00F49204609F04DF8012318B90A4AA3
:100428001846137002E0094A0020137002B010BD8C
:10043800E0A9080828B00808100D002088A80808B6
:100448009BC00808760C0020A40C0020200C00207B
:100458008CA8080807B5002302A941F8043D03F059
:100468007DFF20B9019810B103689B68984703B0D5
:100478005DF804FB08B5094B1B78022B0CD1012150
:10048800072005F074FF322005F0D4F8BDE80840D5
:100498000021072005F06BBF08BD00BF9C0A0020A3
:1004A80040F201339842D0B50C466BD040F201734C
:1004B8009842414A6DD14B7D03F0010313701BB183
:1004C80003F0DCFE3D4B1860E06907F0C9FF32A37A
:1004D800D3E9002308F02AF8394BC3E90001A069E1
:1004E80007F0BEFF2CA3D3E9002308F01FF8354B13
:1004F800C3E90001206A07F0B3FF29A3D3E9002369
:1005080008F014F8304BC3E90001A06A07F098FF1F
:1005180023A3D3E9002308F009F82C4BE27DC3E9B3
:1005280000012B4B1A70E06B07F09AFF1EA3D3E96A
:10053800002308F025F906460F46264BC3E9006755
:10054800206C07F08DFF1AA3D3E9002307F0EEFF14
:10055800214B0022C3E90001204B3046394608F000
:1005680075FA1F4C50B11F4B1A782AB901221A701C
:1005780003F084FE1C4B1860002301E047F230535F
:100588002360D0BD0A79194B1A708A68184B1A6013
:10059800D0BD00231370D0BD48AFBC9AF2D77A3EC5
:1005A800FCA9F1D24D62503F713D0AD7A3F07B40C0
:1005B800F168E388B5F8E43E3D0C0020780C002093
:1005C800600A0020180C0020580A0020300C002077
:1005D800800A0020400C0020D80A002000001C409F
:1005E8006C0C0020760C002004090020A50C0020CB
:1005F800A40A0020000000007FB52F4B02F00F0274
:100608001A601B68013B032B4DD8DFE803F0020E8C
:1006180040492A4A137883F001031370002B42D013
:1006280003F02CFE264B18603DE0264B26491D683A
:10063800D1E900013C2D88BF3C241DA3D3E9002348
:100648008CBFB5FBF4F4002408F09AF808F046FAD9
:100658003C2607F017FFB5FBF6F306FB1355CDE96B
:1006680002011A4A0095234612681949194804F0EC
:10067800D3F8194B00221B7818498DF804208DF8FF
:100688000030144A3346164802F008F90BE00B4BC9
:1006980000221A70134A01231370134A137002E0E0
:1006A800124B01221A7004B070BD00BFAFF3008076
:1006B8003333333333259940900A0020760C0020D9
:1006C80004090020A00C0020080D0020980A002032
:1006D80090A8080808090020940A0020CEA8080855
:1006E800C40C0020A40C0020200C00209D0A00202F
:1006F80010B58368044613B1032201469847204683
:1007080010BD38B504464069B0B103F0EFFD98B9A3
:1007180094F824301BB9606908B103F0F7FDA569A6
:100728003DB12846FFF7E4FF2846FFF7B4FC002355
:10073800A361606903F0F2FD201DFFF7D9FF204691
:1007480038BD0000F0B504468E461549002585B031
:10075800057185604561016002AF92E8030087E892
:10076800030004F10C0696E8030082E8030097E80A
:10077800030086E803009168606990606161D16850
:10078800A069D060A1618DE82800064A2346714619
:1007980004F1080003F0D2FD204605B0F0BD00BF0B
:1007A80018A808085D04080807B58068002340B148
:1007B8008DE80A001A46022103F0D8FDB0FA80F04D
:1007C800400903B05DF804FB37B505460C46002127
:1007D800FFF7EAFFA868002340B1019300941A4686
:1007E800194603F0C3FDB0FA80F0400903B030BDEC
:1007F80038B50E4B04460360836883B16FF000413F
:10080800FFF7D2FF237903F0FF051BB1012004F0A5
:1008180011FFF7E72946A06803F098FDA56004F1E9
:100828000C00FFF765FF204638BD00BF18A8080870
:1008380010B50446FFF7DCFF2046FFF72CFC2046E6
:1008480010BD0000014801F037BC00BFE00A0020DD
:1008580008B50F4B00210F48002219700023C0E98A
:1008680000230D48C0E900230C48C0E900230C48C8
:10087800C0E900230B48C0E900230B4B197003F0B3
:10088800FDFC0A4B186003F0F9FC094B186008BD21
:100898003D0C0020400C0020300C0020580A00209D
:1008A800180C0020600A0020800A0020A00A0020FE
:1008B800780C0020000000002DE9F043244D85B09D
:1008C8002C68DFF8A880002C36D01FA3D3E90023BA
:1008D800DFF89C903C2C88BF3C26D9E900018CBFEE
:1008E800B4FBF6F6002607F04BFF08F0F7F83C27B4
:1008F80007F0C8FDB4FBF7F307FB1344CDE9020189
:10090800144B019400961B68134A4FF480711348E6
:1009180003F09AFF124B00241B78104A8DF8003020
:100928008DF804403B460F490F4801F0B7FF0022FD
:100938000023C9E900232C60012388F8003005B0A2
:10094800BDE8F083AFF30080333333333325994068
:10095800A00C0020980A002090A808080809002088
:10096800940A0020CEA80808C40C0020080400201F
:10097800080D002030B5474885B002F0B5FC0125C8
:100988000346092200214348009502F0BDFF03F009
:1009980003FF044628B10A230193009302953E4BB6
:1009A8001BE00246014603F0BFFE50B10C220A23A9
:1009B8008DE80C000295394B22462146354802F055
:1009C80077FB00221146104603F0B6FE50B1012312
:1009D80002930C2301930093314B002211462D48BA
:1009E80002F066FB2F4B01211A780A23029101932A
:1009F800009312B12C4B002200E02C4B0E2125480D
:100A080002F056FB00221C21224802F060FC284B11
:100A1800284A1978284B1F48002908BF1346274A37
:100A2800002104F017FC002230211A4802F04FFC84
:100A380004F0DCFD044604F0E9FD054604F0DDFDA4
:100A48001F4B204A0021002814BF10461846009565
:100A5800234601901C4A0F4804F0FCFB6821002241
:100A68000C4802F034FC194804F058FE18490446B2
:100A780008F030FB18B1204607F004FD01E01549E5
:100A88000020CDE90001144A0021024804F0E2FBED
:100A980005B030BD480C002024A80808ECAD0808B3
:100AA8004CAF08083D0C002004AE080838A8080818
:100AB800760C00203FBA08086EA9080875B1080826
:100AC800DEA80808DBA80808E1A80808140D00201B
:100AD8000000C84200005940EBA8080800000000C8
:100AE8001FB5314802F000FC01230093372203466A
:100AF80000212D4802F008FF392200212A4802F07F
:100B0800E6FB2A4B3C201A68B2FBF0F13C2A88BF6E
:100B1800B2FBF0F300FB112298BF002300920021E2
:100B2800234A214804F096FB312139221E4802F05D
:100B3800CEFB204B197851B11F4B0021D3E900237C
:100B48001948CDE900231D4A04F084FB10E01C4B32
:100B58001C4A1B78144804F07DFB012302933722BA
:100B68000A23019300931146174B0F4802F0A0FA8D
:100B780039224F210C4802F0AAFB09A3D3E900232C
:100B88001249D1E9000107F0FBFD114ACDE9000146
:100B98000021054804F05EFB05B05DF804FB00BFCA
:100BA8003333333333259940480C0020A00C002000
:100BB800F2A808083D0C0020300C0020FCA808080A
:100BC800800A002027B0080838AF0808080D002060
:100BD80002A90808000000002DE9F843904699464C
:100BE80007F050FCDDE9082306460F4607F0ECFA4B
:100BF80033A3D3E9002307F099FC0022344B07F014
:100C0800BFFD0022334B07F091FC05F007FE0446B8
:100C18000D46DDE90A0142464B4607F0D3FA28A300
:100C2800D3E9002307F082FC0022294B07F0A8FD36
:100C380022462B4607F07AFC32463B4604460D46D0
:100C4800DDE9080107F0BEFA1DA3D3E9002307F088
:100C58006DFC1F4B002207F093FD9DF830300646CF
:100C68000F46E3B122462B462046294607F05EFC94
:100C7800324604460D463B463046394607F056FC98
:100C880002460B462046294607F09EFA05F010FE5C
:100C98000DA3D3E9002307F049FCBDE8F883024619
:100CA8000B462046294605F001FE0022084B07F0B6
:100CB8003DFC03A3D3E9002307F062FDBDE8F883F8
:100CC800182D4454FB21094000000040B04D584104
:100CD800008066400000E03F08B500220A4B07F09C
:100CE80073FA0022094B07F04BFD07F0CFFE084BC3
:100CF800084A0340002BBEBF03F1FF3363F00F0324
:100D0800013352F8230008BD008026400080364099
:100D18000F00008064AF08080F484FF47A7310B5CD
:100D2800C3800D230381342432230022022143810E
:100D38004482012364240271027343738373018222
:100D480084828275C17543768277037602F037FC18
:100D5800B0FA80F0400910BDB00A002038B5134D34
:100D680042221021284602F0CDFB102204465821C9
:100D7800284602F0C7FB2044C4B240225C21284622
:100D880002F0C0FB2044C4B205225B21284602F0D1
:100D9800B9FB2044C4B220225E21284602F0B2FBEF
:100DA8002044C0B2B0FA80F0400938BDB00A002033
:100DB80038B5104D00225E21284602F0A3FB002220
:100DC80004465821284602F09DFB2044C4B2002264
:100DD8005C21284602F096FB2044C4B200225B2125
:100DE800284602F08FFB2044C0B2B0FA80F04009D8
:100DF80038BD00BFB00A00207FB5224B00221A7010
:100E0800FFF7D6FF05F0CCF91D2301464FF4165223
:100E18001D4801F0E3FAFFF71BFD01233C220221E4
:100E28001A4803F049F8194803F016F9184B1868DE
:100E38009B8800906846ADF8043003F0B4FE68B9AA
:100E4800684603F0A9FE48B1124902A804F06BF9FC
:100E580002A8FFF75BFA02A804F01EF90E4B1B78F4
:100E68002BB10E4A1368962B84BF963B136003F090
:100E780005FA0B4B002218600A4B1A7007B05DF890
:100E880004FB00BF200C0020E00A0020480C0020D2
:100E9800200D00200EB10808760C0020A00C0020C0
:100EA800040900203C0C0020826810B50AB905F03E
:100EB8006AFBC368BDE81040184710B501230371E9
:100EC8004369044613B10C30FFF7EEFF002323718A
:100ED80010BD10B58368044613B1C068984703E095
:100EE800406808B1FFF7E0FF012323740020BDE844
:100EF800104003F04BBA38B5046805467CB1636806
:100F0800013B63605BB9236820469B689847A368E8
:100F1800013BA3601BB923682046DB689847284635
:100F280038BD00002DE9F04F93B0064603F0A6F94E
:100F3800654D664B2C681A78041B9B46EAB94FF43A
:100F48007A7394FBF3F3624A4FF48071614803F0BB
:100F58007BFC614B5F4A1B7860498DF800300EA816
:100F68003C2304F03FFE0FA8FFF7C5FF49F64042B7
:100F78005B4B4FF0FF301A60A2E042F20F739C42C5
:100F880003DD584B1B78032B74D13068564908F0A1
:100F980091FA514E554FDFF880A1DFF88091DFF8C4
:100FA8008081002829D1DAE90023CDE90823D9E98D
:100FB8000023CDE90623D8E90023CDE904234C4BCF
:100FC8004FF48071D3E90023CDE90223494B41480E
:100FD800D3E90023CDE900233B68474A03F034FCFA
:100FE80033780EA88DF800303A4A3C23434904F080
:100FF800F9FD0FA8FFF77FFF39E004F0E6FA00F5E6
:101008008C4250323E493F4B0EA804F08BFA0E9B9F
:101018000EA80D9304F040F80D9B4FF480710A93CD
:10102800DAE90023CDE90823D9E90023CDE906232D
:10103800D8E90023CDE904232D4B2648D3E9002322
:10104800CDE902232B4BD3E90023CDE900233B68EC
:101058002D4A03F0F9FB337800228DF804208DF82F
:1010680000301C4A3C232949294801F017FC1C4B35
:1010780000221A609BF80030F3B142F20F739C42D1
:101088001ADD4FF47A7394FBF3F3114A4FF480712D
:10109800104803F0D9FB104B0E4A1B781D498DF8F8
:1010A80000300EA83C2304F09DFD0FA8FFF723FF96
:1010B80049F640420A4B1A6003F0E0F82B68C01A60
:1010C80013B0BDE8F08F00BF780C00203D0C002065
:1010D80009A9080808090020940A00200EA9080890
:1010E8006C0C0020A50C002066A90808980A0020AE
:1010F800180C0020600A00201AA9080861A908082D
:10110800500D00206AA9080870A90808B3A90808A2
:10111800C40C0020BDA90808580A0020D80A0020DD
:10112800400C002010B5164B88B01B78022B0DD14F
:10113800144904A808F0C8F9134B1C68134B1B6822
:1011480023444FF47A74B3FBF4F406E0012B13D173
:101158000F4904A808F0B8F900240E4B04AA1B781C
:101168000D498DF8003002A83C2304F03BFD03A88C
:10117800FFF7C1FE204601E04FF0FF3008B010BD78
:101188009C0A0020CBA908080C0400206C0C002045
:10119800D7A90808940A0020E4A9080810B5264829
:1011A8008AB002F0E9FF01230293302301930093F0
:1011B8000722224B27212048214C01F079FF1E48A5
:1011C80002F04AFF23783BB1FFF776FB00234FF488
:1011D8007A70237004F02EFA1A4801F0E3F91648E1
:1011E80002F0CAFF144802F037FF01211A2005F067
:1011F800BEF800211D2005F0BAF803F0CDFAB8B109
:1012080004F0E3F9104B0246104906A804F08AF9E5
:101218000F4B069A1B780F498DF8003004A83C2321
:1012280004F0E0FC05A8FFF766FE06A803F034FF0B
:10123800FFF794FD0AB010BD480C002018AE08084E
:10124800A40C0020E00A00206AA90808500D00201C
:10125800940A0020F0A908080246014804F0B9BB26
:10126800AF59080837B5044610460D4607F00AF985
:101278002A46CDE900010021204603F0EBFF03B028
:1012880030BD00007FB5724804F099FA704804F048
:1012980091FA41F270016F4803F070FB00236E4A27
:1012A80000214FF4005003F0F1F901233C22022100
:1012B8006A4802F001FE694802F05EFF0124302608
:1012C80080238DE848000422654B0294002163487E
:1012D80001F0EEFE2146614801F0FCFF21465F481F
:1012E80001F0FDFF36220F215C4801F0F0FF5D4957
:1012F8005A4803F070FF594802F0AEFE02F0BEFFF4
:10130800594B5A4D186002F0B9FF594B1860FFF756
:101318009FFA04F045FF4FF4165201461D23554825
:1013280001F05CF82870FFF7F7FC534B534918702D
:101338005348FFF791FF53495348FFF78DFF53492F
:101348005348FFF789FF53495348FFF785FF53492F
:101358005348FFF781FF2146072004F0F7FF0021DB
:10136800072005F004F84F4804F026F84FF07E50A7
:1013780004F03EF8394802F0FFFE2146374801F0F4
:10138800A9FF31460022354801F0A1FF04F024F9F5
:10139800064604F03BF933460090434A00212F48A3
:1013A80003F058FF002268212C4801F090FF2848DC
:1013B80004F0B4F93D4902462848FFF753FF27488F
:1013C80001F092FF0094034609220021234802F00D
:1013D8009BFA0A220621214801F079FF2978344A2C
:1013E800344B1E48002908BF1346334A002103F036
:1013F80031FF1A4801F078FF009403463722002194
:10140800164802F081FA39220021144801F05FFFE2
:101418002A49124803F0DFFE104802F01DFE03F0CF
:10142800B3F9274B6FF0004126481C70FFF7CCF941
:101438006FF000412448FFF7C7F96FF000412348D7
:10144800FFF7C2F902F01AFF214B186004B070BD13
:10145800140D0020780A002001060808480C002016
:10146800ECAA0808FEA90808A00A0020A60C00207B
:10147800780C0020E00A0020A70C00207903080857
:1014880010AA0808150308081DAA08082D1108083D
:1014980029AA08082D0F080834AA0808C103080853
:1014A80041AA08080000A0C0F2A80808EBA808088C
:1014B8009DAA0808FBA9080855AA080865AA0808EB
:1014C8009C0A0020800C0020E8080020380A002030
:1014D8007C0A002000000000F7B57B487B4C02F036
:1014E8004BFEFFF747FA0B220021774801F0EFFE89
:1014F8002578E5B903F050F970B102F0BFFE744BDE
:101508004FF47A721B682946C31A93FBF2F36E48AC
:10151800704A03F09FFE0AE06F4B1B783BB16F489F
:1015280002F0D2F96E4902466748FFF79BFE03F0C6
:1015380033F9054620B96B4B1B78002B40F0B2807D
:10154800654B1D78002D55D00125009514232022C8
:1015580064215D4801F012FC634E00952E23202281
:101568004D21594802F0D0F92C230A220095642114
:10157800554802F0CDFAB06806F084FF00225B4BB4
:1015880006F0D4FF07F082FAC0F1200005B23068F7
:1015980006F078FF48A3D3E9002306460F4607F074
:1015A80055FA38B946A3D3E900233046394607F03F
:1015B8002FFA58B100224D4B3046394606F0B6FF97
:1015C80007F064FAC0F1640001B200E0642101236D
:1015D80000932A4603233C4801F046FD2B220021B4
:1015E800394801F074FE424B42491A683648FFF701
:1015F80039FE09E013222946334801F068FE3E4AC5
:101608002946314803F026FE18220B212E4801F006
:101618005EFE02212C4801F05DFE384B0021D3E923
:1016280000232948CDE90023354A03F013FE0121A0
:10163800254801F04FFE3349234803F0CCFD23220F
:101648003021214801F043FE02211F4801F042FEEB
:10165800237833B12C4BD3E90001FFF73DFB01465A
:1016680000E02A4918482A4C03F0B5FD0121164824
:1016780001F030FE2368002B0CDD2B2200211248DC
:1016880001F025FE2368234A00210F4803F0E2FDFC
:1016980000232360FFF724FA0B4803B0BDE8F040AD
:1016A80002F0DABC1C4801F030F81C4A034629460F
:1016B800054803F0CFFD43E77B14AE47E17AA43F2A
:1016C8007B14AE47E17AA4BF480C00203D0C0020F3
:1016D800780C00207DAA0808A70C0020B00A00207A
:1016E80082AA0808760C0020840A002000004440E2
:1016F800740A00208CAA080893AA0808400C002045
:10170800A4AA0808A9AA0808D80A00207AAA0808DA
:10171800900A0020ADAA0808C40C0020B8AA08083E
:101728002DE9F04F894C8DB02378894D032B60D873
:10173800DFE803F002172445864B1B780BB103231F
:10174800237003F029F8002853D02B783BB10223EB
:101758006FF0004180482370FFF736F849E0012315
:1017680046E07C4B1B780BB10323237003F014F87D
:1017780000B920702B78002B3BD0E8E7754B1B781D
:101788000BB10323237003F007F8064648B920700D
:101798006FF000417048FFF707F83146072004F062
:1017A800E6FD2E782EBB01236FF000416A482370B6
:1017B800FEF7FAFF3146072004F0D9FD19E0FFF7DC
:1017C800EDFC664B11221B68ADF81E200293012226
:1017D8004FF461638DE80C000DF11E010DF11D033E
:1017E80008A88DF81D2003F0B1F9FFF705FB0023C9
:1017F80023705B4E347824B902F0CEFF002840F005
:10180800818003F0C1FE20B1564C2378002B40F0B4
:1018180088802B78002B40D002F030FD524C534B7F
:1018280022681B681A44524B1B68134498427FD89D
:101838002B78002B31D002F021FD4E4C236803F5A4
:101848007A73984229D94C4B1B78BBB1DFF854B155
:101858000022DBE9008900234046494607F0CEF81C
:10186800464F474D474E002800F09E80D7E9002399
:10187800CBE90023D6E90023C5E9002302F0FEFCEA
:101888002368414AC01A4FF47A73B0FBF3F0136827
:101898001844106002F0F2FC206002F0EFFC3B4CB0
:1018A800236803F59673984204D9FFF715FE02F0F2
:1018B800E5FC2060304B1D7835B9354C23781BB1D9
:1018C800344800F00BFC2570334B1A78002A00F0DE
:1018D800AC800024224621461C702046234602F094
:1018E8003BFF40F6B83003F0A5FE234622462146CA
:1018F800204602F029FF234622462146204602F0D0
:101908000BFF92E0082308940127ADF8203008AABD
:10191800234647F230512046099702F055FF3770A9
:101928006FE703F03BFD1D4B18600023237070E741
:101938001B4908A803F0F7FB08A8FFF7F3FA08A863
:1019480003F0AAFB02F09AFC206071E79C0A0020D1
:10195800760C0020200C0020A80C0020AC0A0020E7
:10196800E408002008040020A80A00200C04002035
:101978006C0C0020040900203D0C0020600A0020A7
:10198800280C0020180C0020A00C00207C0A002045
:101998007C0C0020E00A00209D0A0020980A002004
:1019A8000EB10808680A00204946404607F096F834
:1019B80001230493D6E90023CDE90223D7E90023C4
:1019C800CDE90023D5E90023FFF706F982468B46C7
:1019D800174B0022C3E900AB164BD3E90089164B1D
:1019E8004046494607F032F818B9DFF84C904FF0F6
:1019F8000008124B5246C3E9008940465B464946F7
:101A080007F006F800283FF439AFDFF8388052466F
:101A1800D8E900015B4606F0D7FBD7E90023C8E9FF
:101A280000010749C1E9002324E70DB0BDE8F08FA4
:101A3800300A0020300C0020000024400004002060
:101A4800680A0020080D002010B50446FEF723FBA5
:101A5800204610BD2DE9F041784B00241C60784BDE
:101A68004FF00108C3F80080764B86B083F80080F9
:101A780002F08CFB4FF420627349744800F05EFE5C
:101A8800734A7449714804F079FD734B02A90293B3
:101A9800724B73480593734B734D049300F058F9D8
:101AA80002A8FEF725FE6A4A70496D4804F066FDF3
:101AB8001E2241466E4801F05BFD21466D4803F049
:101AC800EDFD634A6C496B4804F058FD21466B48AC
:101AD80002F0E9FE5E4A6A49684804F04FFD1A239D
:101AE80018221921674802F08DF9594A6649654854
:101AF80004F044FD654B664F664E0293664BEC60FE
:101B0800022202A9281D2B6005970496FEF7E0FA29
:101B1800059B05F114002B61049B0922EB605F4BC8
:101B28005F49EB614FF400736C61AC612D6285F81D
:101B380024408DE809005B4B02F0D0FB02F09EFBCD
:101B4800594B186002A8FEF7D3FD414A5749284669
:101B580004F014FD564B02AA4FF4FA61029355485B
:101B6800234605970496FEF7EDFD02A8FEF7C0FD93
:101B7800374A51494F4804F001FD504B02AA5049D9
:101B880002935048234605970496FEF7DBFD02A80A
:101B9800FEF7AEFD2E4A48494A4804F0EFFC4A4B8E
:101BA80002AA41F2883102934848234605970496D1
:101BB800FEF7C8FD02A8FEF79BFD254A3E494348AB
:101BC80004F0DCFC424B02AA6421029341482346FC
:101BD80005970496FEF7B6FD02A8FEF789FD1C4A94
:101BE80035493C4804F0CAFC3B4A234611463B4869
:101BF80002F0CCFC4146404602F060FB4FF69C7375
:101C0800374D02206B804FF6FF732C70AB8002F0CB
:101C180025FD2246214602A8029402F057FB029BAA
:101C28001E2B04D103232B7011236C80AB80002161
:101C3800012002F033FD06B0BDE8F081100D002050
:101C4800AC0A0020940A002000400240C40C002086
:101C5800E00800205D260808A9040808F100080823
:101C6800E00A0020FF000808080A0020331D0808C1
:101C7800B00A0020140D0020C3560808780A002076
:101C8800CD480808480C0020170108081901080861
:101C9800D5000808D9000808E0930400C5640808BE
:101CA800BEAA0808DB0E0808601200200B07080807
:101CB8007D040808A80C0020F9070808C9000808CE
:101CC800F0490200E808002035010808800C0020CF
:101CD80051010808380A00200EB10808C5AA0808EA
:101CE800700C002038B50B4B8469054603607CB145
:101CF8006368013B63605BB9236820469B6898472B
:101D0800A368013BA3601BB923682046DB6898479A
:101D1800284638BDC0B9080810B50446FFF7E2FFE9
:101D28002046FEF7B8F9204610BD10B5D0F82C3182
:101D3800044623B100F592710322084698472046CD
:101D480010BD00238371037443748381C38170477A
:101D580070B504460D460026012380F814314671FB
:101D68004682C0F8186100F58E7004F0BFF8C4F818
:101D78002C61AB6853B10222294604F5927098474A
:101D8800EB68C4F83031AB68C4F82C312046FFF753
:101D9800D8FF204670BD037C1944437CC9B2017446
:101DA80019444174704730B50D46681A80B28242B2
:101DB80009D915F8014B187820445C78C0B218701E
:101DC80020445870F1E730BD7FB515461E46B52250
:101DD80000238DF8082062228DF809208DF8043040
:101DE8008DF80530ADF80A1001AB04220DF10A0197
:101DF8000446ADF80C60FFF7D6FF2DB101AB3246B3
:101E080029462046FFF7CFFF20680622036802A96B
:101E1800DB6898472DB12068324603682946DB689D
:101E2800984720680222036801A9DB68984704B034
:101E380070BD07B50323ADF804108DF806204FF4E4
:101E4800837101AAFFF7C0FF03B05DF804FB0A46DF
:101E5800012103F0FFB9000040F2013208B50389FF
:101E6800934216D006D8052B16D040F2051293429D
:101E780012D014E040F20172934204D046F20102FB
:101E8800934206D00BE083895C2B14BF0323012304
:101E980006E08389102BF8E78389022BF5E70223F4
:101EA8008372837A032B07D8DFE803F00D0D0B024A
:101EB80004F0A2F8054902E004F09EF80449FFF78F
:101EC800C6FF002008BD012008BD00BFC5AF080837
:101ED800D9AF080813460A46012103F0BBB907B574
:101EE800ADF80610816809B904F04DFBC3680DF11F
:101EF8000601984703B05DF804FB000073B5857AC6
:101F08000446012D68D140F20132038993422BD057
:101F180006D8052B4DD040F20512934236D05BE02F
:101F280040F20172934217D046F20102934253D114
:101F380004F062F8064602F0A1F9637E274A00938E
:101F480029460346304603F085F9637E003318BFFF
:101F5800012384F814313FE004F04EF8054602F0FE
:101F68008DF91F49024606E004F046F8054602F0DE
:101F780085F902461B492846FFF7ACFF04F1140215
:101F8800218904F59270FFF7AAFF25E004F034F8E0
:101F9800054602F073F9144902462846FFF79AFFEE
:101FA8006379012B18D1A28A638A9A4214D1022339
:101FB80011E004F021F8054602F060F90B490246E9
:101FC8002846FFF787FF6379012B05D1A28A638A28
:101FD8009A4201D10323637102B070BD10B00808A2
:101FE800EBAF0808FCAF08082AB008083BB008089F
:101FF80010B5837904460A46082B59D8DFE803F060
:1020080005090D131C2232405200B52A50D1012374
:1020180046E0622A3ED1022342E01146FFF7BBFEAA
:10202800032302813CE01146FFF7B5FE038943EA2A
:1020380002220281042333E01146FFF7ACFE052398
:1020480082812DE01146FFF7A6FE838943EA02222A
:102058008281FFF701FFE8B1A389002B14BF062393
:1020680007231DE01146FFF796FEC389C1180A75BC
:10207800013382899BB29A42C38119D807230FE0A2
:10208800037C93420BD003F0B7FF2389094A01214F
:1020980003F0E0F82046BDE81040FFF752BE0823E1
:1020A800A37110BD437C9342EDD1FFF727FFF1E701
:1020B80010BD00BF4CB0080810B50446206803687E
:1020C8001B699847002808DD206803685B69984702
:1020D800C1B22046FFF78CFFF0E710BD2DE9F041B3
:1020E8008CB0044602F058FB002800F0FB80D4F8BE
:1020F80018313BB103F069FAD4F818311E3398420D
:1021080040F3F08003F078FF054602F0B7F804F5D5
:102118008E77024675492846FFF7DCFE384603F0FD
:10212800FBFE054600BB03F067FF064602F0A6F873
:102138006F49024630460CAEFFF7CCFE46F8245DE8
:102148002B460095324620216A4802F02FFA20B12A
:10215800294605A803F0DAFE03E0314605A803F096
:10216800CDFE069BC4F82031384603F0D5FE002882
:1021780000F0938005A802F0B3FE03F03DFF05468A
:1021880002F07CF85C4902462846FFF7A3FE5B4B49
:1021980050220393D4F8203103A9049305A80023FF
:1021A80002F0A8FE00286AD0554E524D3346554AD3
:1021B800002105A803F04EF82B46534A002105A834
:1021C80003F048F803F018FF074602F057F84F49A4
:1021D80002463846FFF77EFE03F00EFF074602F080
:1021E8004DF84B4A034601210096384603F032F871
:1021F80003F002FF064602F041F8464A0346012171
:102208000095304603F026F803F0F6FE054602F086
:1022180035F8414902462846FFF75CFE02F02EF8E1
:10222800002580462F4605A802F006FF00283FD06B
:1022380002F024F808F51C531033984238D205A848
:1022480002F0C0FD0028EEDD02F018F8804605A86F
:1022580002F05FFD022DC6B23ED003F0CDFE03684A
:1022680031469B6898470A2E02D10135EDB202E04B
:102278000D2E18BF00252046FFF71EFFDFE703F0ED
:10228800BBFE044601F0FAFF244902462046FFF748
:1022980021FE05A8FFF726FD24E003F0ADFE044665
:1022A80001F0ECFF1E4902462046FFF713FE19E035
:1022B80005A802F0C5FD03F09FFE054601F0DEFF0C
:1022C800184A034601210097284602F0C3FF03F08D
:1022D8007CF9C4F81801DCE73146206803F059FF9F
:1022E8000137C8E70CB0BDE8F08100BFEEB10808BF
:1022F8006BB00808A4AF08088DB0080848BB0808E8
:10230800ACB00808C3B0080804B108080FB1080841
:1023180023B1080869B1080878B108089EB108080F
:10232800C4B1080811B2080870B505460C4601F09A
:10233800A5FF064601F0A2FFA319984212D2286809
:1023480003681B6998470028F4DD01F097FF0646EB
:1023580028680A2403685B699847C1B22846FFF7D2
:1023680047FEECE770BD012370B543714182154605
:10237800044601F083FF2E186379012B08D101F080
:102388007DFFB04204D229462046FFF7CDFFF3E790
:10239800607900236371831E5842584170BD70B53F
:1023A80004460E4601F06AFF054601F067FFAB19C7
:1023B800984211D2206803681B6998470028F4DD09
:1023C80001F05CFF0546206803685B699847C1B265
:1023D8002046FFF70DFEEDE770BD000038B5044656
:1023E8001D460846ADB22160114603F0CFFE2846CF
:1023F800012103F0ABFF0121284603F0B8FF204676
:10240800FFF79FFC64212046FFF7C9FF04F114057C
:102418002046FFF796FC14220021284607F01AF8F8
:1024280001234FF40D622375A26123844FF41652E1
:102438000323E26163842A46142306212046FFF71A
:10244800C3FCC82206212046FFF78DFF3022002159
:10245800284606F0FFFF022323754FF40433A361D7
:102468004FF47A73E36142F210732A46236243F60B
:10247800063120463023FFF7A7FCC82243F6063171
:102488002046FFF770FF20B903F0B6FD3F49FFF77C
:10249800DEFC00234FF47A72AB80A2820122E28232
:1024A80023832A4640F6060120460623FFF78CFCC4
:1024B800C82240F606012046FFF755FF20B903F071
:1024C8009BFD3349FFF7C3FC24220021284606F070
:1024D800C1FF0523A3820023A3750323E3752A46BE
:1024E80042F2064120462423FFF76EFCC82242F23E
:1024F80006412046FFF737FF20B903F07DFD254947
:10250800FFF7A5FC012240F201712046FFF791FC7C
:10251800C8224FF483712046FFF725FF20B903F046
:102528006BFD1D49FFF793FC012240F20131204663
:10253800FFF77FFCC8224FF483712046FFF713FF93
:1025480020B903F059FD1549FFF781FC0D22002140
:10255800284606F07FFF0B23A361012384F820306F
:1025680020460D232A4640F60611FFF72DFC20468B
:10257800C82240F60611FFF7F6FE044620B903F01C
:102588003BFD0749FFF763FC204638BD45B2080804
:1025980058B208086CB2080880B208089BB208084C
:1025A800B9B2080838B50446012280F8142146F269
:1025B8000101FFF73EFCC8224FF483712046FFF764
:1025C800D2FE20B903F018FD1249FFF740FC94F839
:1025D800143173B103F010FD054601F04FFE0E49AA
:1025E80002462846FFF776FC64212046FFF79CFE4A
:1025F800EDE763610223A3612046082304F1140276
:1026080044F20211FFF7E0FB2046BDE838406421A0
:10261800FFF7C5BECCB20808EDB2080801F0B6BD98
:102628004268036812F0010F4FEA620018BF0A58A7
:10263800084418BFD3581847012A034601D101603E
:1026480005E0022A03D110B103C983E80300002082
:102658007047000038B504460F4B40F8283BFEF79A
:1026680047F8E068A8B101F041FE90B9237F1BB993
:10267800E06808B101F04AFE25693DB12846FEF739
:1026880037F82846FDF707FD00232361E06801F0CD
:1026980045FE204638BD00BF0CB3080810B50446F7
:1026A800FFF7D8FF2046FDF7F6FC204610BD0EB414
:1026B80000B58CB00DAA52F8041B20238DE8060043
:1026C800039204930168002304AA0120059301F0F2
:1026D800B5FF0CB05DF804EB03B070470EB400B55D
:1026E8008CB00DAA52F8041B20238DE80600039233
:1026F80004930168002304AA1E20059301F09EFF9D
:102708000CB05DF804EB03B070474089704738B5EA
:1027180001F108040546204607F00EFC0130044488
:10272800204607F009FC6B6801302044C31A13F0F7
:1027380003031CBFC3F10403C01838BD2DE9F347D8
:102748000E460446264B002580E84800254B22818A
:102758000C3020F8025C63614FF400638DE80900D7
:102768009046214B0222E5602561A46125771F4927
:1027780001F0B4FD47F23053374663621C4BE56203
:10278800A3621C4BA56363631B4BE563236384F857
:1027980040501A4B57F8082B99469A4214D1B388DF
:1027A8009BB2984510D106EB080A2762F388AAB2B3
:1027B8009BB29A420FD2216A2046FFF7A8FF8245B2
:1027C800206205F10105F1D20023C6F80090A6F8B1
:1027D8000480F3802762204602B0BDE8F08700BF7E
:1027E8000CB30808A3290808DB0E080814B3080866
:1027F800F5290808292608084126080861AB9CD154
:102808002DE9FF47054688460021084601F08EFD60
:10281800D5F804902F8909F108044F44B9F8063017
:10282800B8F1000F07D0012B2CD921462846FFF715
:102838006EFF044600E02BB321462846FFF767FFEA
:102848003A1A0646C4EB000A03D00146204606F0B1
:10285800E6FD2B6A4246CAEB03032B62B9F8063041
:102868000C49013B9BB2A9F806300B4802938DE84E
:10287800C0002346FFF71BFF0120002101F056FD91
:10288800012004E00120002101F050FD002004B0E7
:10289800BDE8F08726B308081C0D00202DE9FF4786
:1028A800334F05460846002A18BF17469A468846F9
:1028B80007F042FB0446384607F03EFB204400F18F
:1028C8000A04A30718BF24F003049DF830909DF86C
:1028D800346018BF04343B4603940296CDF8049044
:1028E800CDF800A0424623492348FFF7F7FE2B897D
:1028F800083B9C4236D80021084601F017FD69685C
:102908002B892A6A0B449B1A9C421DD849EA060661
:10291800C2F800A016712E6A41460836304606F005
:10292800D3FD304607F008FB01303946304406F045
:10293800CBFD286A6A6804442C62D38801240133D9
:102948009BB2D3806B8108E0CB88012B04D095F82B
:1029580040102846FFF754FF00240021012001F011
:10296800E5FC00E00024204604B0BDE8F08700BF85
:102978000EB108086DB308081C0D0020044608B500
:1029880000F12805236B0BB903F0FDFD636B2146AD
:102998002846984701F0B2FCF4E708B5FFF7EEFFC8
:1029A80010B5044691E80C0086B00292A268039321
:1029B80002AB93E803008DE8030094E8030083E882
:1029C80003009DE803000492064A84E80300A2601D
:1029D800E26818460592044AE260FDF789FE20463F
:1029E80006B010BD412608082926080807B5054B7A
:1029F80069460093283000230193FFF7D1FF03B005
:102A08005DF804FB7D2A080813B5044601F036FC7E
:102A1800E36BC01A636A984208D3054B6946009372
:102A280004F1280000230193FFF7BAFF02B010BD9C
:102A38007D2A080870B5064600200C4601F036FECF
:102A480008B9002070BD002C03DD01F017FC054615
:102A580000E0002573783BB9002C07DD01F00EFC7F
:102A6800401BA04202D3ECE7012070BD01F084FEB8
:102A7800F0E700002DE9FF410021456804460846BB
:102A880001F054FCED880021ADB2012001F04EFCAC
:102A9800002D6ED001F080FE00286AD001F0EEFB18
:102AA800E36BC01A40F2F133984262D96768012398
:102AB80007F1100584F84030284607F03DFA97F8EA
:102AC8000C800130CDF80480BB682E182A4600938C
:102AD800294933462948FFF701FEBB682946324693
:102AE80002A88DF8008003F07DF8029D0021284699
:102AF800FFF7A0FF6B78BFF35F8F002B37D0002163
:102B08002846FFF797FF2B78012B30D12E7B039DAA
:102B18007DB16B68013B6B605BB92B6828469B688D
:102B28009847AB68013BAB601BB92B682846DB684C
:102B3800984746B112491148FFF7D0FD00212046B9
:102B4800FFF75EFE0CE00F490C48626AFFF7C6FD0E
:102B58000D4B02A904F1280002930396FFF720FF0A
:102B6800002384F8403001F089FBE06301E000268F
:102B7800CDE704B0BDE8F081ECB308081C0D0020D7
:102B8800AEB30808C5B30808112A080808B501F04B
:102B9800FDFA024A024B1A6008BD00BF0DB40808CE
:102BA8001C0D00202DE9F04F1E4685B0BDF93830C8
:102BB80015469A1A002AB8BF52420092721A002A81
:102BC800B8BF524201920C46009A019981468A4246
:102BD800BDF83CA005DD32461E46134622462C466B
:102BE8001546B44205DD2A461D461346224634469C
:102BF80016465A1B002AC4EB0608B8BF52421FFAF1
:102C080088F803920FFA88F702229D42B4BF012385
:102C18004FF0FF3397FBF2F70293B4421FDC019A9F
:102C2800009B48469342D9F80030C8BF2246D3F8E3
:102C380010B0C8BF29465346DCBF2A462146D847AC
:102C4800039BFF1ABBB21FB2002F05DA029A08EBEA
:102C5800030715442DB23FB2013424B2DDE705B0B5
:102C6800BDE8F08F2DE9F347044691460D46984696
:102C7800BDF82C600768BDF928A00096FF69B84721
:102C880023680AF1FF3200964A44DF692946434621
:102C9800204612B2B847236800969F694A465346B1
:102CA80029462046B847236808F1FF310A96294487
:102CB8009D694A4653462046AC4609B202B0BDE873
:102CC800F047604737B5013BBDF818501344046816
:102CD8001BB20093019564690B46A04703B030BD51
:102CE80037B5BDF8185004688DE82400013B0B4443
:102CF80064691BB2A04703B030BD2DE9F347054610
:102D080017460C46BDF92880BDF82C9001EB030A44
:102D180054450BDA2B68CDF800909E69214643464E
:102D28003A4628460134B04724B2F1E702B0BDE87C
:102D3800F08713B5B0F90E200468019100920022C3
:102D4800B0F90C30646A1146A04702B010BD704754
:102D5800018181814FF6FF7130B5074D0024428112
:102D6800C28101224460056044760482448202766E
:102D7800C1828182827630BD20B408082DE9F04FE7
:102D88000446884617468BB00393BDF80C60BDF81F
:102D98005050C6F101031BB20293C6EBC6335B0069
:102DA8001BB21FFA82FB0693036806EB0B02D3F8EB
:102DB800109012B22B46C8472368C6EB0B02414657
:102DC800D3F8109012B22B462046C8471FFA88F352
:102DD800F118019323683A46D3F8108009B22B46BC
:102DE8002046C047019B3A46991B236809B21E69D1
:102DF80020462B46B04700230593019B01330793D8
:102E0800019B013B08930BF101030993BDF91430B1
:102E1800039A934280F28480029B002B0BDB531EA3
:102E28001BB20393069B02339BB21AB20692029A14
:102E380013441BB20293BDF81470029B204603EBA7
:102E4800470303331BB20293079B07EB030ABDF842
:102E58000C300FFA8AFA04930BEB030923680FFA74
:102E680089F9D3F810804A4651462B46C047089B3B
:102E78004A46C7EB030823680FFA88F81B694146DE
:102E88001E4620462B46B047049B5146C3EB0B0910
:102E980023680FFA89F91B694A461E4620462B46C5
:102EA800B04723684A46D3F810A041462B4620462F
:102EB800D047019B049A204603EB0208099B0FFAAE
:102EC80088F807EB030923680FFA89F9D3F810A0EB
:102ED8004A4641462B46D047019B049A20469E1AF3
:102EE800236836B24A46D3F810A031462B46D0475D
:102EF8000BF1FF33DF1B23683FB24146D3F8109034
:102F08003A462B462046C84723683A46D3F81080ED
:102F180031462B462046C047059B0133059375E78C
:102F28000BB0BDE8F08F2DE9F04F1E4604468DB07A
:102F38009DF8583008920993BDF95C301FFA81FB5F
:102F48000A93BDF860300493B3B2C3F10108C3EB30
:102F5800C3335B001BB2069300230393099B0FFA4C
:102F680088F803F001030B93BDF90C30B34278DA0B
:102F7800B8F1000F09DB069B013E02339BB21AB27F
:102F8800984436B206920FFA88F8BDF80CA04FEABA
:102F98004A039BB20593033398440B9B0FFA88F8B6
:102FA80053B30498BDF828302568BDF82070009008
:102FB8001FFA86F9A86907930BF10101013303EBA6
:102FC8004903C9EB0702514405461BB212B209B2C4
:102FD8002046A847079B059A049D0333134420689D
:102FE8007A1ECAEB02020BEB0901009585691BB238
:102FF80012B209B22046A847099B9B0703D4039B3A
:1030080001330393B0E7BDF82050B7B20498BDF878
:1030180028900795EA1B25680090A86909F1010323
:103028000BF1FF3103EB4703CAEB010105461BB265
:10303800204612B209B2A847059A09F103031A44B7
:103048001346079A049D2068013ACAEB0202C7EBAF
:103058000B01009585691BB212B209B22046A84738
:10306800CDE70DB0BDE8F08F2DE9F04315460446D5
:1030780088461E4685B0BDF830709AB20097530056
:1030880003F1010E0368AA1AD3F8189012B20FFAC6
:103098008EF3C847032200238DE80C0002973346BD
:1030A8002A4641462046FFF73EFF05B0BDE8F083BB
:1030B8002DE9F04F87B09A46BDF94430BDF94080FC
:1030C8000293BDF848309146039308F1070208239C
:1030D800002492FBF3FB25468DE803000593029A32
:1030E8002BB29A4225DD09EB05031BB20026049397
:1030F80033B243451ADA059AB1B293FBF2F30AEBFD
:103108000402D25C802001F0070340FA03F31A425C
:103118000AD0019B049A1944009B09B21B680098C5
:103128001B691F46039BB8470136E1E701355C443C
:10313800D5E707B0BDE8F08F2DE9F04F8FB00691C5
:10314800BDF8601004460791BDF864109DF86880CA
:103158000891B0F90C10069881427DDDB4F90E1083
:10316800914279DD062101FB0800002874DD02EB9D
:10317800C800002870DD03EB830395B20C9305F1BA
:1031880008039BB2099100260D932F46A946052EE8
:103198001FBF334B0C9A9B1913F802A01FFA88F330
:1031A80004930499BDF81830B2B201FB02311344FC
:1031B80009B20A911BB20FFA88F108BF4FF0000A52
:1031C800059503910B931AF0010F11D0B8F1010F77
:1031D800236803D1D3F810B0079B14E0079A019233
:1031E800039A0092D3F824B013460FFA89F218E034
:1031F800079B089A934217D0B8F1010F236807D1AB
:10320800D3F810B013463AB20B992046D8470BE0D2
:10321800089A0192039A0092D3F824B01346BDF994
:1032280014200A992046D847049B049A9944059B80
:10323800013713449BB205930D9BBFB29F424FEADF
:103248005A0A1FFA89F9BED1099B0136013B13F0CE
:10325800FF0376B2099398D10FB0BDE8F08F00BF95
:1032680050B4080830B50A2985B004460B4604D185
:10327800027E438A03EBC20323E00D2924D0057E96
:10328800B0F91220B0F910100295C58A0195858A07
:103298000095FFF751FF227E238A91B201EB41008E
:1032A80003EB4003A07E1BB2238268B1B4F90C0083
:1032B8006FF0050505FB0202934205DD638A03EB07
:1032C800C103638200232382012005B030BD01823F
:1032D80042827047002908BF012101767047C182E8
:1032E80081827047407E7047B0F90C007047B0F992
:1032F8000E00704700F04ABF6B2343700A238370A7
:10330800017009B942707047012908BF827070477F
:103318002DE9F0411E46037807460D46144673B161
:10332800012B42D10021807803F021F844F080017C
:10333800264801F0CBFB05EB060800241FE003F04C
:10334800DDF8797802F0B9FF03F0D8F80368214670
:103358009B68984703F0D2F802F0BAFF38BB03F035
:10336800CDF83246797802F0A0FFAC1903F0C6F820
:1033780003681B699847E0B1A5421CD115E0454593
:103388000AD00021114801F0A1FBFF2804BF013435
:10339800E4B205F8010BF2E70121B878B4420CBF9A
:1033A8000524002402F0E3FF0DE000240BE00124D3
:1033B80009E0044607E003F0A1F803685B69984751
:1033C80005F8010BD2E72046BDE8F0815012002035
:1033D8002DE9F0410578044688461746C5B1012D08
:1033E8003BD10021807802F0C2FF47F080011E48DF
:1033F80001F06CFB00211C4801F068FB06462946D9
:10340800A07802F0B4FFFF2E14BF0025052525E0A3
:1034180003F074F8617802F050FF03F06FF8036866
:1034280039469B68984703F069F802F051FF051C7C
:1034380018BF012503F062F80122617802F035FF18
:1034480003F05CF803681B69984738B103F056F835
:1034580003685B699847C6B2F2E7002588F8006000
:103468002846BDE8F08100BF5012002037B5047827
:103478000546ACB1012C17D1194801F0C1FA082151
:10348800174801F00FFB2146154801F0BEFA214606
:10349800A87802F05BFF2146A87802F068FF03E0F5
:1034A80003F02CF802F0F2FE00238DF8063042F209
:1034B80010739DF80620013B0132D2B29BB28DF801
:1034C8000620002BF5D10F220DF107012846FFF742
:1034D8007FFF9DF80700693818BF012003B030BD91
:1034E8005012002013B502230C4601A9FFF710FF64
:1034F8009DF805209DF8043043EA0223238002B09A
:1035080010BD0000F8B5057804460F46164695B17B
:10351800012D29D10021807802F029FF394613486E
:1035280001F0D4FA3146114801F0D0FA2946A078C2
:1035380002F01DFF18E002F0E1FF617802F0BDFE25
:1035480002F0DCFF036839469B68984702F0D6FF13
:10355800036831469B68984702F0D0FF02F0B8FE36
:10356800003018BF0120F8BD0020F8BD501200201F
:1035780010B50446FFF7C0FE01232371237363735C
:10358800A373E373A375E3752376637640F6B833C4
:103598004FF4FA62E2804FF4C8714FF4D07263833B
:1035A8000A2322816181628210216422A38300237D
:1035B8002182A282A37723846384204610BD73B539
:1035C800054600268DF80660FFF750FFAA7B0446E3
:1035D800012A8DF806606BD1AB8A642B05D0C82B05
:1035E80007D0322B07D1032300E002238DF80630E1
:1035F80001E08DF806202A8A9DF80630042A06D0B4
:10360800082A07D0022A09D043F0040304E043F053
:10361800080301E043F00C038DF806306A8A9DF830
:103628000630B2F5D07F30D00CD81A2A21D004D871
:103638000D2A24D143F0100338E0342A1CD0D02AB4
:1036480020D01CE040F602518A4227D008D840F228
:1036580041318A421CD040F27C618A421BD00EE084
:1036680041F604218A421CD043F212418A421BD0FF
:1036780005E043F0200319E043F0300316E043F07F
:10368800400313E043F0500310E043F060030DE003
:1036980043F070030AE063F07F0307E063F06F0311
:1036A80004E063F05F0301E063F04F038DF8063038
:1036B80002AE16F8022D10212846FFF723FF132229
:1036C80031462846FFF784FE9DF80630EA7B03F072
:1036D8007F03012A8DF8063004BF63F07F038DF85D
:1036E80006309DF8062013212846FFF70BFF00231C
:1036F8008DF806302B79012B45D1EB88F52B11D0AD
:1037080003D87D2B0BD102230AE0B3F5FA7F04D04E
:10371800B3F57A7F03D1082302E0042300E00C23E9
:103728008DF806302A899DF80630D02A1ED008D890
:103738001A2A12D0342A13D00D2A14D143F01003B8
:103748001FE040F241318A4216D040F27C618A4241
:1037580015D0B2F5D07F06D10BE043F0200310E07E
:1037680043F030030DE043F040030AE043F0500318
:1037780007E043F0600304E043F0700301E063F006
:103788007F038DF806309DF8062011212846FFF7A3
:10379800B9FE0F220DF107012846FFF719FE204652
:1037A80002B070BD13B528220DF106010446FFF7DB
:1037B80099FE40B105280BBF238C638C013301337C
:1037C8000CBF23846384BDF9060002B010BD13B595
:1037D8002A220DF106010446FFF784FE40B10528B0
:1037E8000BBF238C638C013301330CBF23846384A8
:1037F800BDF9060002B010BD13B52C220DF106016B
:103808000446FFF76FFE40B105280BBF238C638C7D
:10381800013301330CBF23846384BDF9060002B071
:1038280010BD00000000000070B5008A0E46400878
:1038380004F016FE044630460D4605F059FA04F029
:1038480021FE09A3D3E9002304F070FE02460B46CB
:103858002046294604F06AFE0022054B04F090FF3A
:1038680005F03CF970BD00BF08AC1C5A643BAF3F83
:1038780000408F4010B50446FFF794FF01462046EC
:10388800BDE81040FFF7D0BF10B50446FFF79FFF13
:1038980001462046BDE81040FFF7C6BF10B50446F4
:1038A800FFF7AAFF01462046BDE81040FFF7BCBF5E
:1038B80007B520220DF10601FFF714FEBDF9060039
:1038C80003B05DF804FB000008B5FFF7F1FF05F051
:1038D8000FFA4FF0765105F05FFA074905F054F9F1
:1038E800064905F059FA064905F00AFB4FF08441EC
:1038F80005F04AF908BD00BF0000C84100001041AA
:103908000000A04000F042BCF0B5447EBDF8146051
:10391800022C09D0032C10D0012C40F0A980048976
:10392800013CA21A12B20CE04489013CA21A048993
:1039380012B2E41A611A09B29AE04589ED1A6C1AB2
:1039480021B2002AC0F29380B0F90840944240F3B3
:10395800D8800029BCBFC9180BB2B0F90A40B8BF5B
:103968000021C818A042C4BF631A1BB2002B40F341
:10397800C880C9B2C808634C02EBC01211F0070135
:10398800DBB204EB020528D0C1F10800C0B25E49E1
:103998008342095C0CD2C3EB000EFF2747FA0EF7EF
:1039A800012E01EA070105D008D3022E0CD0F0BD84
:1039B800012E02D1A75C394308E003D2A75C27EAAD
:1039C800010103E0022E05D1A75C79408342A1548E
:1039D800C0F097801B1ADBB28035072B26D9022E40
:1039E80005F180020CD1194612F8800C0839C04341
:1039F800C9B2072902F8800C02F18002F4D827E046
:103A0800012E0CBFFF20002019460839C9B207292A
:103A180002F8800C02F18002F7D8A3F10802C2F381
:103A2800C402013205EBC21503F00703002B68D06E
:103A3800364A012ED35C03D005D3022E61D113E0A0
:103A48002A78134302E02A7822EA03032B70F0BD98
:103A5800A3F10802C2F3C402013213F0070305EB15
:103A6800C2154ED0294AD35C2A785340EEE7F0BD00
:103A7800002A45DBB0F90A40944242DD0029BCBF68
:103A8800C9180BB2B0F90840B8BF0021C818A04245
:103A9800C4BF631A1BB2002B33DD082092FBF0F081
:103AA800184D01EBC01102F00702012000FA02F2E2
:103AB80086420D44D2B203D00CD3022E16D0F0BDEC
:103AC800591E0BB25C1C1CD015F8011B114305F8DC
:103AD800011CF5E7D243D2B2591E0BB2581C10D0C4
:103AE80015F8011B114005F8011CF5E7591E0BB22A
:103AF800591C06D015F8011B514005F8011CF5E7C3
:103B0800F0BDF0BD2004002018040020100400209F
:103B1800F0B5447EBDF81450022C08D0032C0FD009
:103B2800012C5FD10489E41AA21A12B20CE00489AC
:103B3800013C611A448909B2E41AA21A12B251E08E
:103B48004489013C611A09B200294ADBB0F90A40EC
:103B58008C4240F3DA80002ABCBFD21813B2B0F905
:103B68000800B8BF0022D4188442C4BF831A1BB20D
:103B7800002B40F3CA80082091FBF0F002EBC01242
:103B8800624801F007011044012202FA01F195424E
:103B9800C9B203D00DD3022D18D0F0BD013B1BB222
:103BA8005D1C00F0B28010F8012B0A4300F8012CCC
:103BB800F4E7C943C9B2013B1BB25C1C00F0A58005
:103BC80010F8012B0A4000F8012CF4E7013B1BB266
:103BD8005A1C00F09A8010F8012B4A4000F8012C7A
:103BE800F4E7F0BD0029C0F28F80B0F908408C429C
:103BF80040F38B80002ABEBF9B181BB20022B0F98D
:103C08000A00D4188442C4BF831A1BB2002B7CDD7F
:103C1800D2B2D0083D4E01EBC01112F00702DBB260
:103C280006EB010427D0C2F10800C0B2384A83422B
:103C3800125C0CD2C3EB000EFF2747FA0EF7012DDA
:103C480002EA070205D008D3022D0CD0F0BD012DE1
:103C580002D1775C3A4308E003D2775C27EA020294
:103C680003E0022D04D1775C7A40834272544CD32E
:103C78001B1ADBB28034072B26D9022D04F18001F0
:103C88000CD11A4611F8800C083AC043D2B2072A60
:103C980001F8800C01F18001F4D825E0012D0CBF5A
:103CA800FF2000201A46083AD2B2072A01F8800CF1
:103CB80001F18001F7D8A3F10802C2F3C40201326E
:103CC80004EBC21403F00703FBB1124A012DD35CC5
:103CD80003D005D3022D18D112E02278134311E046
:103CE800227822EA03030DE0A3F10802C2F3C4021A
:103CF800013213F0070304EBC21406D0054AD35C63
:103D0800227853402370F0BDF0BDF0BD20040020A0
:103D1800180400201004002010B422B119460548E8
:103D280010BC00F0D3BE0122C9B2C0B210BC02F070
:103D380037BB00BF30120020F8B50D1E06461446EA
:103D48001F465BDBFFF7D0FA854257DA002C55DBBC
:103D58003046FFF7CCFA844250DA3046FFF7C2FA11
:103D6800022843D1318972890139013A4D1B141B4C
:103D78002DB224B206E0012804D13389013B1B1B74
:103D88002C461DB2012F03D010D3022F1ED0F8BD30
:103D9800082194FBF1F11A4A09B205EBC115535DEC
:103DA80004F00704A7401F435755F8BD082194FBAA
:103DB800F1F109B205EBC1151149012304F007041B
:103DC80003FA04F44B5D23EA04040DE0082194FB94
:103DD800F1F109B205EBC1150949012304F0070403
:103DE80003FA04F44B5D5C404C55F8BD0328C2D17E
:103DF8007389013B5B1B25461CB2C3E7F8BD00BFB6
:103E080020040020F8B504461D460F4616468021BA
:103E18004022FEF79DFF064BE7772360012384F8D5
:103E2800206084F8215084F822302046F8BD00BF75
:103E380054B9080838B590F91D30044601330D46C9
:103E480022D090F92100012180B202F090FA94F971
:103E58001F00002180B202F08AFA94F921000021A3
:103E680080B202F084FA94F91E1094F91D002B46D2
:103E780094F82220FFF750FF94F92100012180B225
:103E8800BDE8384002F073BA02F038FB94F91B1011
:103E980002F017FA02F032FB036800219B6898478A
:103EA80002F02CFB036829469B68984702F026FB22
:103EB800BDE8384002F00CBA38B50446217790F9CD
:103EC8001D300D460133C27633D090F91F00012111
:103ED80080B202F03BFA94F92100012180B202F08D
:103EE80035FA94F822305BB994F91D00012180B2AB
:103EF80002F02CFA94F91E00012180B202F026FA91
:103F080094F82230CBB194F92100012180B202F05B
:103F18002EFA01214F4800F078FD10214D4800F09D
:103F2800C1FD00214B4800F073FD4A4800F068FDD0
:103F380003E002F0E3FA02F0A9F994F92000012164
:103F480080B202F003FA94F92000012180B202F055
:103F58000EFA012001F06EFB94F92000002180B2D6
:103F680002F005FA0A2001F065FB94F9200001210E
:103F780080B202F0FCF92046AE21FFF75BFF204635
:103F8800D521FFF757FF20468021FFF753FF204632
:103F9800A821FFF74FFF20463F21FFF74BFF2046A0
:103FA800D321FFF747FF20460021FFF743FF2046B4
:103FB8004021FFF73FFF8D212046FFF73BFF012DF2
:103FC8000CBF102114212046FFF734FF2046202182
:103FD800FFF730FF20460021FFF72CFF2046A121E4
:103FE800FFF728FF2046C821FFF724FF2046DA21E3
:103FF800FFF720FF20461221FFF71CFF81212046F2
:10400800FFF718FF012D0CBF9F21CF212046FFF796
:1040180011FFD9212046FFF70DFF012D0CBF2221EA
:10402800F1212046FFF706FF2046DB21FFF702FFBC
:1040380020464021FFF7FEFE2046A421FFF7FAFEA6
:104048002046A621FFF7F6FE2046BDE83840AF21FE
:10405800FFF7F0BE301200202DE9F047044600219A
:10406800FFF7E8FE10212046FFF7E4FE4021204636
:10407800FFF7E0FE94F91D3000250133DFF8F480E6
:1040880041D0A5F15001C9B22046FFF7D3FE022165
:104098002046FFF7CFFE10212046FFF7CBFE4FEA60
:1040A800C51A002694F92100012180B202F05FF9B7
:1040B80094F91F00012180B202F059F994F9210006
:1040C800002180B202F053F90AEB0609C144002727
:1040D80019F8073094F8222094F91E1094F91D005D
:1040E8000137FFF719FE102FF2D194F921000121B1
:1040F80080B2103602F03BF9802ED3D10135082D5D
:10410800BFD1BDE8F087A5F15001C9B22046FFF73D
:1041180091FE02212046FFF78DFE10212046FFF771
:1041280089FE4FEAC51A002602F0E8F994F91B1037
:1041380002F0C7F802F0E2F9036840219B6898474B
:104148000AEB0609C144002702F0D8F9036819F8F8
:1041580007109B6801379847102FF5D102F0CEF968
:10416800103602F0B5F8802EDED10135082DCAD1FF
:10417800BDE8F087200400204FF480620021014848
:1041880005F068B92004002000F000B808B5024B1B
:104198001B681B68019308BDB001040808B5024BF1
:1041A8001B689B68019308BDB001040808B5024B61
:1041B8001B68DB68019308BDB001040808B5024B11
:1041C8001B681B69019308BDB001040808B5024BC0
:1041D8001B681B68019308BDB401040808B5024BAD
:1041E8001B689B68019308BDB401040808B5024B1D
:1041F8001B68DB68019308BDB401040808B5024BCD
:104208001B681B69019308BDB401040808B5024B7B
:104218001B685B69019308BDB401040808B5024B2B
:104228001B68DB69019308BDB401040808B5024B9B
:104238001B681B6A019308BDB401040808B5024B4A
:104248001B685B6A019308BDB401040808B5024BFA
:104258001B685B68019308BD9C01040808B5024B04
:104268001B689B68019308BD9C01040808B5024BB4
:104278001B68DB68019308BD9C01040808B5024B64
:104288001B685B69019308BD9C01040808B5024BD3
:104298001B68DB69019308BD9C01040808B5024B43
:1042A8001B689B6D019308BD9C01040808B5024B6F
:1042B8001B68DB69019308BDB801040808B5024B07
:1042C8001B685B6E019308BDB801040808B5024B72
:1042D8001B68DB6E019308BDB801040808B5024BE2
:1042E8001B685B68019308BDD001040808B5024B40
:1042F8001B689B68019308BDD001040808B5024BF0
:104308001B68DB68019308BDD001040808B5024B9F
:104318001B681B69019308BDD001040808B5024B4E
:104328001B685B69019308BDD001040808B5024BFE
:104338001B68DB69019308BDD001040808B5024B6E
:104348001B681B6A019308BDD001040808B5024B1D
:104358001B685B6A019308BDD001040808B5024BCD
:104368001B689B6A019308BDD001040808B5024B7D
:104378001B68DB6A019308BDD001040808B5024B2D
:104388001B681B6B019308BDD001040808B5024BDC
:104398001B68DB6E019308BDD001040808B5024B09
:1043A8001B689B69019308BDC401040808B5024B4A
:1043B8001B685B6A019308BDC401040808B5024B79
:1043C8001B689B6A019308BDC401040808B5024B29
:1043D8001B68DB6A019308BDC401040808B5024BD9
:1043E8001B681B6B019308BDC401040808B5024B88
:1043F8001B685B6B019308BDC401040808B5024B38
:104408001B689B6B019308BDC401040808B5024BE7
:104418001B681B6C019308BDC401040808B5024B56
:104428001B68DB6C019308BDC401040808B5024B86
:104438001B681B6D019308BDC401040808B5024B35
:104448001B68DB68019308BDAC01040808B5024B82
:104458001B685B69019308BDAC01040808B5024BF1
:104468001B689B69019308BDAC01040808B5024BA1
:104478001B68DB69019308BDAC01040808B5024B51
:104488001B681B6A019308BDAC01040808B5024B00
:104498001B685B6A019308BDAC01040808B5024BB0
:1044A8001B689B6A019308BDAC01040808B5024B60
:1044B8001B68DB6A019308BDAC01040808B5024B10
:1044C8001B681B6B019308BDAC01040808B5024BBF
:1044D8001B685B6B019308BDAC01040808B5024B6F
:1044E8001B681B6C019308BDAC01040808B5024B9E
:1044F8001B689B6C019308BDAC01040808B5024B0E
:104508001B68DB6C019308BDAC01040808B5024BBD
:104518001B681B68019308BD2400060808B5024BF8
:104528001B685B68019308BD2400060808B5024BA8
:104538001B689B68019308BD2400060808B5024B58
:104548001B68DB68019308BD2400060808B5024B08
:104558001B681B69019308BD2400060808B5024BB7
:104568001B681B6A019308BD2400060808B5024BA6
:104578001B681B6B019308BD2400060808B5024B95
:104588001B685B6C019308BD2400060808B5024B44
:104598001B689B6A019308BD2000060808B5024BFA
:1045A8001B689B6B019308BD2000060808B5024BE9
:1045B8001B68DB6B019308BD2000060808B5024B99
:1045C8001B681B68019308BD1C00060808B5024B50
:1045D8001B681B69019308BD1C00060808B5024B3F
:1045E8001B685B69019308BD1C00060808B5024BEF
:1045F8001B689B69019308BD1C00060808B5024B9F
:104608001B68DB69019308BD1C00060808B5024B4E
:104618001B681B6A019308BD1C00060808B5024BFD
:104628001B685B6B019308BDA001020808B5024B2B
:104638001B681B6D019308BDA001020808B5024B59
:104648001B685B6D019308BDA001020808B5024B09
:104658001B681B68019308BDA401040808B5024B38
:104668001B685B68019308BDA401040808B5024BE8
:104678001B685B69019308BDA401040808B5024BD7
:104688001B689B69019308BDA401040808B5024B87
:104698001B681B6A019308BDA401040808B5024BF6
:1046A8001B68DB6A019308BDA401040808B5024B26
:1046B8001B68DB6C019308BDA401040808B5024B14
:1046C8001B685B6D019308BDA401040808B5024B83
:1046D8001B689B6D019308BDA401040808B5034B32
:1046E8001B68D3F89030019308BD0000A4010408AA
:1046F80008B5034B1B68D3F89C30019308BD000034
:10470800A401040808B5034B1B68D3F8A83001932B
:1047180008BD0000A401040808B5024B1B685B68CB
:10472800019308BDC801040808B5024B1B689B68C3
:10473800019308BDC801040808B5024B1B681B6932
:10474800019308BDC801040808B5024B1B685B69E2
:10475800019308BDC801040808B5024B1B689B6992
:10476800019308BDC801040808B5024B1B685B68C3
:10477800019308BDCC01040808B5024B1B689B686F
:10478800019308BDCC01040808B5024B1B68DB681F
:10479800019308BDCC01040808B5024B1B685B698E
:1047A800019308BDCC01040808B5024B1B681B6ABD
:1047B800019308BDCC01040808B5024B1B681B6BAC
:1047C800019308BDCC01040808B5024B1B689B6B1C
:1047D800019308BDCC01040808B5024B1B68DB6BCC
:1047E800019308BDCC01040808B5024B1B681B687F
:1047F800019308BDA001040808B5024B1B685B685B
:10480800019308BDA001040808B5024B1B689B680A
:10481800019308BDA001040808B5024B1B68DB68BA
:10482800019308BDA001040808B5024B1B681B6969
:10483800019308BDA001040808B5024B1B689B69D9
:10484800019308BDA001040808B5024B1B68DB6989
:10485800019308BDA001040808B5024B1B681B6A38
:10486800019308BDA001040808B5024B1B685B6AE8
:10487800019308BDA001040808B5024B1B68DB6A58
:10488800019308BDA001040808B5024B1B681B6B07
:10489800019308BDA001040808B501F04FFEBDE86A
:1048A800084001F01CBD10B50446017009B1FFF7BE
:1048B800F3FF204610BD08B501F040FEBDE80840F2
:1048C80001F016BD10B5037804460BB1FFF7F3FFEE
:1048D800204610BD10B504460068FFF7ECFF2046DF
:1048E80010BD37B502AC0D4644F8040DFFF7D4FFF0
:1048F80001F024FE6B2101F0E4FC01F01FFE0368C7
:1049080029469B68984701F019FE012101F0DCFC5B
:1049180001F014FE01231A466B2101F0C9FC01F0D5
:104928000DFE03685B69984705462046FFF7D2FFEE
:10493800E8B203B030BD73B502AC15460E4644F874
:10494800040DFFF7A9FF01F0F9FD6B2101F0B9FC97
:1049580001F0F4FD036831469B68984701F0EEFDCD
:10496800036829469B68984701F0E8FD012101F09A
:10497800ABFC2046FFF7AEFF02B070BD37B504466A
:104988000D460190FFF788FF04212046FFF7A9FF95
:1049980041F210039D4200F0030206D041F2700379
:1049A8009D420AD142F0B00201E042F0980220464E
:1049B8000421FFF7C0FF012400E0002401A8FFF74D
:1049C80089FF204603B030BD704710B50446FBF799
:1049D80062FB204610BD000070B504460E46074B2A
:1049E8000025036040F80C5FFFF7C8FC30462671CD
:1049F800FFF714FCA560204670BD00BF8CB90808FD
:104A08004FF6FF710079FFF7E1BB0079FFF7E6BBCE
:104A18000079FFF7EBBB0000054A0023995C81424F
:104A280002D00133082BF9D1581CC0B2704700BF1F
:104A380094B90808400830B5186000241868E5B231
:104A4800884206D90134082C02D040081860F5E7DE
:104A58000725024B5B5D137030BD00BF94B9080891
:104A680070B5044602FB01F588B0067914220021CE
:104A780003A804F0EFFC0B2303A930460022ADF88D
:104A88000C30FFF7DBFB02AB0DF107022946049857
:104A9800FFF7D0FF20799DF80710FFF7AFFB0298CA
:104AA80008B070BD38B50446A56808464DB1FFF793
:104AB800B3FF012225FA00F12046BDE83840FFF790
:104AC800CFBF2079BDE83840FFF798BB08B500791B
:104AD800FFF79CFBC0B208BD0079FFF7A7BBFFF743
:104AE800E5BB000010B50446084611461A460023E7
:104AF800FFF7C4FD074B00221A704FF69C725A80CC
:104B08004FF6FF729A801A689B882260A38020461D
:104B180010BD00BF200D002030B54FF69C754580B4
:104B28004FF6FF75002400290470858009DD0139DE
:104B380099420AD232F811304480838001230370ED
:104B480030BD04BF02230370418030BD70B50D46EF
:104B5800164686B01A46002302930C9B044601931E
:104B68000B9B3146009328460A9BFFF7CBFD334643
:104B78002A46014604A8FFF7CFFF064B0498BDF864
:104B88001420186020469A801A689B882260A380A7
:104B980006B070BD200D00200078023801288CBFB7
:104BA8000020012070470078012802D0C31E584217
:104BB800584170474FF69C7337B50D4C00256380FC
:104BC8004FF6FF732846A3802570FFF747FD02A81C
:104BD80040F8045D2A462946FFF778FB019B1E2B07
:104BE80004D10323237011236580A38003B030BD53
:104BF800200D002037B502AC036804F8011DDD6BF9
:104C0800012247F230532146A84703B030BD10B403
:104C18000368DC6B47F23053A44610BC604737B5D5
:104C280002AC036804F8011DDD6B2146134601221E
:104C3800A84703B030BD70474A6903490160D2F8FC
:104C48008C204260704700BF48BB080870470020AE
:104C5800704710B50446FBF71EFA204610BDFBF757
:104C68001ABA0000F0B51D46036887B0DB6A04462F
:104C78000E4617469847114B186803681B689847F3
:104C8800C8B102A801F032F9304605F055F9002301
:104C9800009381B22B4603AA3046FFF787FC50B930
:104CA80023683A461E6A064B04A90493039B2046D0
:104CB80005932B46B04707B0F0BD00BF90BB08086E
:104CC80048BB080810B5044603689B689847A36862
:104CD800013BA3602BB923682046BDE81040DB6880
:104CE800184710BD10B543690446B3F88620B3F8D9
:104CF80084309A4205D06269B2F884301344187936
:104D080010BD03681B6998470028F4D14FF0FF30A5
:104D180010BD10B543690446B3F88620B3F8843053
:104D28009A4208D06269B2F88430591CA2F88410FB
:104D38001344187910BD03681B6998470028F1D1FE
:104D48004FF0FF3010BD10B504692068FFF7E6FB8F
:104D580010B12068FFF702FC2046BDE81040FBF7C1
:104D68009AB9F8B543691746B3F88620B3F8843082
:104D780005469A420E4606D103681B69984710B942
:104D88004FF0FF3414E069693046B1F88430B1F867
:104D980086401944E41ABC4228BF3C4604312246E6
:104DA80004F032FB6A69B2F884302344A2F88430F4
:104DB8002046F8BD42690023A2F884304269A2F86F
:104DC8008630704738B542690446B2F886301BB160
:104DD800B2F884209A420BD0184B186803681B68F5
:104DE800984718B363691868FFF798FB18B91DE06E
:104DF800FFF7E0FFF0E76069B0F886107F2915D863
:104E0800051DC1F18002002329440068FFF79EFBBD
:104E180000280BDD6369B3F886200AB9A3F884205B
:104E28006269B2F886301844A2F886006269B2F85E
:104E38008630B2F88400181A38BD00BF90BB080845
:104E480038B5436904461868FFF768FB18B1636909
:104E58001868FFF783FB6569FFF788FB28606369BB
:104E68000022C3F88C202046BDE83840FFF7A2BFD7
:104E7800F8B54FF47A738360174B002646600360D9
:104E880046618661044690200F46FBF702F9054605
:104E980038B10760A0F88460A0F88660883001F017
:104EA80025F81420FBF7F5F8034628B101224260E3
:104EB80082600A4A05610260A0696561A36128B140
:104EC8004368013B43600BB9FFF7FCFE2046FFF740
:104ED80071FF2046F8BD00BFC0B90808A4B908088A
:104EE80010B50446FFF742FB01462046FFF7C0FF16
:104EF800204610BD2DE9F041984603688AB0DB6A68
:104F080004460D46174698472C4B186803681B68DB
:104F1800984700284FD03B4606220121CDF8008053
:104F280002206669FFF702FB202330600293002607
:104F3800636903961B6801200193214B02AA009321
:104F480020493346FFF772FB63691868FFF7E6FAF2
:104F580088B32046FFF72EFF0223ADF808303B0A3E
:104F68008DF80A30EB794FF4FA508DF80C30AB79A4
:104F78008DF80B708DF80D306B798DF80E302B791C
:104F88008DF80F30FFF70AFB63691022804602A9EB
:104F98001868FFF7D3FA07464046FFF7FFFA636938
:104FA8006A68C3F88C202FB123682046DB6A9847CB
:104FB800304600E001200AB0BDE8F08190BB080847
:104FC8000BBA080804BA080810B5436904461868FB
:104FD800FFF7A4FA08B9002010BD074B186803684A
:104FE8001B6898470028F6D063691868FFF78EFA9F
:104FF800B0FA80F0400910BD90BB08082DE9F341D4
:105008000025456004460E4617469846FFF7DCFF24
:1050180060B160690195CDF800802B463A4631466B
:105028000068FFF7ABFA002803DA01E04FF0FF3021
:10503800606002B0BDE8F08138B50446FFF7C4FFF0
:1050480000BB6369B3F88610B3F88420914219D184
:105058001868FFF763FA28B163691868FFF756FA0A
:10506800012801D000250EE0236820461B699847D7
:10507800002814BF0125002505D123682046DB6AD6
:10508800984700E00125284638BD08B5FFF79CFF82
:10509800003018BF012008BD10B504460068FFF7AE
:1050A800ABFB204610BD10B50446006808B1FFF7F9
:1050B800A3FB00232360A360636010BD38B50446DA
:1050C8000D4600680131FFF79FFB10B184E821000D
:1050D800012038BD10B50368044613B143688B42FC
:1050E80007D22046FFF7EAFF20B1A3680BB9226870
:1050F8001370012010BD70B50E46114604461546C2
:10510800FFF7E8FF18B92046FFF7CDFF09E02A4668
:105118003146A560206804F077F92268A368002169
:10512800D154204670BD38B500230446036043605F
:10513800836003730D4639B1084604F0FDFE294625
:1051480002462046FFF7D7FF204638BD884210B5F3
:105158000B46044607D0096819B19A68FFF7CBFFD8
:1051680001E0FFF7A0FF204610BD10B5044600235C
:105178000360436083600373FFF7E8FF204610BDB8
:10518800006808B104F030B87047F8B506460D4617
:105198008F180024BD420CD0336815F8011B9B689A
:1051A80030469847002801DB0444F3E7002C08BF89
:1051B80004462046F8BD70B505460C46084649B178
:1051C80004F0BAFE2B68024621462846BDE8704026
:1051D800DB68184770BD08B5FFF7EDFF08BD036829
:1051E8009B68184738B50D210546FFF7F8FF0A21D7
:1051F80004462846FFF7F3FF204438BD012A98BF2C
:105208000A2230B50B468BB000218DF824100DF121
:105218002304B3FBF2F505FB1233DBB2092B94BF71
:1052280030333733DBB2214604F801392B46002DE1
:10523800EFD1FFF7C0FF0BB030BD10B422B903683F
:10524800C9B29B6810BC1847D2B210BCFFF7D6BFD2
:10525800FFF7F3BF0CB42DE9F04387B000AF07F1B7
:10526800380454F8049B05460E4623464A46142142
:10527800381D3C60FFF7F8FA132805D8391D284671
:10528800FFF799FF044613E000F1080323F0070332
:10529800E846ADEB030D411C23464A4668463C6090
:1052A800FFF7E2FA69462846FFF785FF0446C54638
:1052B8001EB12846FFF796FF044420461C37BD461A
:1052C800BDE8F04302B070470B68036013B15A6839
:1052D80001325A6070470000014A024B1A60704759
:1052E800D2BA0808280D0020F0B5144B144F1E68D8
:1052F800144B064418683B6806449E428BB01BD08A
:105308000AA840F8286D03F087FF0446436901ADF9
:1053180003F26C7343610FCC0FC50FCC0FC5D4F8E3
:1053280000E0094CC5F800E001AD0FCD0FC40FCD6A
:105338000FC43E60C4F800E00BB0F0BD600D002063
:105348005C0D0020580D00202C0D002008B5002011
:10535800FFF732FA28B1FFF71FFA80F00100C0B258
:1053680008BD012008BD000008B5FFF7BDFF044BCC
:10537800986818B10C2802DD0C3808BD0C2008BD4F
:105388002C0D002008B5FFF7AFFF034B98680B28DA
:10539800D4BF0020012008BD2C0D002008B5FEF761
:1053A80075FF034B1B681844024B1B68184408BD63
:1053B800600D0020580D002010B50949044603F07F
:1053C80089FE60B90749204603F0A2FE38B90649AC
:1053D800204603F0E1FC03F0A5FE044B186010BD65
:1053E800000040C10000604100006145600D0020E0
:1053F80010B50021044603F06DFE68B94FF08041F6
:10540800204603F085FE38B90449204603F0C4FC61
:1054180003F088FE024B186010BD00BF0000614514
:105428002008002037B50E4B04461B6802A8194413
:105438000C4B1B68194440F8041D03F0EDFE03F003
:1054480097FE054604F078FD0023284400F8013C47
:1054580029462046FFF767FE204603B030BD00BF4F
:10546800600D0020580D00202DE9F047A2B012ACC5
:1054780007468946204611461D4604F025F8204671
:1054880004F05AFD804625B9244902A804F01CF806
:1054980013E03C2195FBF1F2002AB8BF524292FB7F
:1054A800F1F301FB13224FF46163009295FBF3F3D0
:1054B8001B4A0A2102A8FFF7C7F925462E1B08F147
:1054C800FF3AB2451BD92B78252B16D16B787A2B4E
:1054D80013D102A804F030FD80463044C6EB0A021E
:1054E800A91C204403F090FF424602A9284603F075
:1054F8008BFF204604F020FD80460135DEE74B4651
:105508002246322105A804F063F805A93846FFF7BA
:105518000AFE384622B0BDE8F08700BFB1C20808CD
:10552800FBBA0808F7B5054601921C4613B9124B99
:105538001C682CB1114B2046196803F0BBFF20B939
:1055480001992846FFF76EFF13E00D4F019A3B685B
:105558000C4E1A44336802A8134440F8043D03F083
:105568005BFE3A6833680146134428462246FFF733
:105578007BFF284603B0F0BD540D0020240800200E
:10558800600D0020580D002010B50020FEF786FEA3
:10559800044668B9FFF75AF801280BD12046FFF7EF
:1055A80095F838B9FFF7D2FE30B9FFF7E5F8F9E713
:1055B800012010BD002010BDFFF7C8FE0020FEF737
:1055C8006DFE003018BF012010BD08B5FFF7DCFFE5
:1055D800BDE80840FEF75ABE08B5FFF7F6FFFFF72B
:1055E80083FE014B986808BD2C0D002008B5FFF715
:1055F800ECFFBDE80840FFF7B7BE08B5FFF7E5FFC9
:10560800FFF7C0FEB0FA80F0400908BD08B5FFF703
:10561800DCFFFFF769FE014B586808BD2C0D002020
:10562800024B1A68024B1A60704700BF240800201A
:10563800540D00200021FFF719B810B50446FBF7F8
:1056480057F8204610BD13B50B46044603C88DE82D
:10565800030093E8030084E803009DE8030083E85F
:10566800030002B010BD0000034800238360034A12
:10567800034900F083BF00BF640D0020E00800204C
:1056880043560808006800F02ABE10B504460160B9
:1056980002710AB1FFF7F6FF204610BD38B504467F
:1056A8000D4600F04BFF2A4601462046FFF7EDFF66
:1056B800204638BD006800F01BBE10B503790446CB
:1056C8000BB1FFF7F7FF204610BDF8B504460F46AB
:1056D80016461D46FFF7D6FF2068362100F0F1FD7B
:1056E8002068394603689B6898470121206800F0C4
:1056F800EBFD022236210123206800F0D9FD206845
:1057080003685B6998473070206803685B6998474D
:1057180028702046BDE8F840FFF7CCBF13B500223B
:1057280002AB03F8012D8DF8062004210DF10602C5
:10573800FFF7CBFF9DF8070002F092FE0022084B0E
:1057480002F0F4FE03F0CAF904469DF8060003F0DF
:10575800CFFA0146204603F017FA02B010BD00BF89
:105768000000703F13460A460C21FFF7AEBFF8B59C
:1057780004460F4616461D46FFF784FF206836216B
:1057880000F09FFD2068394603689B6898472068A9
:10579800314603689B6898472068294603689A68D9
:1057A80090472068012100F08FFD2046BDE8F840B1
:1057B800FFF780BF002340220621FFF7D8BF13B5AB
:1057C8000446FFF75FFF002302AA02F8013D0DF12E
:1057D800060120468DF80630FFF7C4FF9DF8073014
:1057E8009DF8062003F07F030C212046FFF7BFFF3A
:1057F8002046FFF75FFF02B010BD000008B5184B48
:1058080033B100F0F9FB03681B69984700281EDCD8
:10581800144B33B100F0C4FC03681B699847002897
:1058280018DC114B0BB1AFF30080104B0BB1AFF389
:1058380000800F4B0BB1AFF300800E4B7BB100F033
:1058480017FC03681B699847002806DC08BDAFF3FE
:105858000080DDE7FAF7F6FFE3E7AFF3008008BD65
:10586800000000004D0808080000000000000000CB
:10587800000000000000000008B5FFF7BFFFFEF7BA
:10588800FDFC014B186008BD601200200248034A65
:105898000349121A03F0B8BD00400240044A02400E
:1058A80030C3080807B5002300931A466FF0770144
:1058B800FEF71EFF03B05DF804FB000007B5438840
:1058C8000A2B08D0502B09D1094B1B683BB103B0F8
:1058D8005DF804EB1847FFF7E5FF06E000230093A7
:1058E8001A466FF07701FEF703FF03B05DF804FB7B
:1058F800740D002038B5104C104D2368AB42104B86
:105908000CBF012200221A7002D0FFF7BFFF2560EA
:10591800FEF79CFC03F0A6FD0A4B1BB1FEF796FCB4
:10592800AFF3008000210748FEF756FFBDE8384076
:1059380000210548FEF7D2BE004A02401E1C279AE5
:10594800780D002000000000C558080870470020A6
:10595800704710B50446FAF79EFB204610BD08B5FF
:1059680008B1FFF7F6FF08BD38B5C468D4B123788D
:10597800022B02D1E068FEF73FFF65682DB128468B
:10598800FAF7B6FE2846FAF786FBA5682DB1284631
:10599800FAF7AEFE2846FAF77EFB2046BDE8384007
:1059A800FAF779BB38BD10B588B004466846FFF7EA
:1059B800BAFB694604A8FFF7D8FB04A8A047044629
:1059C80004A8FFF769FB6846FFF766FB204608B0A6
:1059D80010BDF0B507460E46154685B01024224680
:1059E8000021684603F036FD002269461046ADF8EE
:1059F8000040029703960195FEF7B6FE05B0F0BD8C
:105A080013B5044691E8050000234B600B60206045
:105A1800626001A801930093FBF76DFA204602B07B
:105A280010BDF7B50C4606460F4654F8043B02ADC8
:105A380045F8083D214601A8FFF746FC29463046AF
:105A4800FFF7DEFF01A8FBF756FA2046FBF753FAEB
:105A58003846FAF720FB304603B0F0BD826810B52F
:105A68000AB900F090FDC368BDE81040184708B5B2
:105A7800006800F11001FFF7F1FF08BD826810B55A
:105A88000AB900F080FDC368BDE81040184708B5A2
:105A9800006800F11001FFF7F1FF08BD38B50023D9
:105AA80083608B6804460D462BB102229847EB6849
:105AB800E360AB68A360204638BD00002DE9F041E3
:105AC8004FF69C7304684FF0020086B0B1F90420C9
